:020000040000FA
:1000000040140020D5000000EF000000151600008D
:1000100000000000000000000000000000000000E0
:10002000000000000000000000000000F3000000DD
:100030000000000000000000F5000000671900004B
:100040006D160000751600007D1600008516000074
:10005000EF120000111D0000611F0000691F000069
:10006000451600004D160000A9180000B118000048
:10007000251600002D160000F91C0000011D0000CF
:10008000091D00003D160000191D0000211D000083
:10009000291D00005D16000055200000A118000079
:1000A000ED08000065160000452000004D2000000E
:1000B000551600003516000005140000AD0D0000B7
:1000C0000348854600F0D0FB00480047AF08000019
:1000D0004014002009480A4A002100A1814200D9A9
:1000E0000244084802600848804708480047FEE785
:1000F000FEE7FEE7FEE7FEE7FEE700000000002067
:100100000000000008ED00E0A51C0000C100000098
:1001100030B50B46014600202022012409E00D469F
:10012000D5409D4205D31D469540491B2546954027
:1001300040191546521E002DF1DC30BD70B500246B
:100140002546002801DA01244042002901DA012570
:100150004942FFF7DDFFAC4200D04042002C00D006
:10016000494270BDFFB585B006460698144602ADFB
:10017000022846D3002C44D0002003902846803823
:1001800006990027491EFF430191009023E0604338
:10019000801961438A1901461046089A9047002841
:1001A00004DCB8002958C919295014E068682246AF
:1001B000604381190098C06F6043801908E00B7894
:1001C0009C4603780B7063460370401C491C521E0A
:1001D000002AF4D17F4200986968C06F8842D6DC5B
:1001E00022463046089BFFF7BDFF00980699C06F76
:1001F0002246091A401C60438019491E089BFFF7DC
:10020000B1FF09B0F0BDD2B201E00270401C491E3E
:10021000FBD270470022F6E710B513460A460446A3
:100220001946FFF7F0FF204610BDF8B502464A40D8
:10023000D40F42004B0052085B089A4202D2024699
:10024000084611464A0023D0C30D4A00DDB2120E03
:10025000AD1A202D35DA49020126490AF6058A1918
:10026000002C00D0524220214F1B1146B9402A4198
:100270001018C20D9A4221D0002C17D0012D08DC95
:10028000DA05801AD20F8019D207DBB200F053FAD8
:10029000F8BDDA05801A012340001B06C01880183B
:1002A0005A428018CA0F1043490007E04908C207A4
:1002B0001143DA05801A80194008801800F033FADB
:1002C000F8BD61000122511A001BF7E70122D20795
:1002D0005140AAE70122D2075040A6E7024670B576
:1002E0004A40D30FDB0740002DD04A002AD0010E30
:1002F000140E000212020919400A520A8418E5017C
:1003000004465443000A120A2E045043A419421909
:10031000200CC543AA18120C0125AD03521C52191A
:1003200012047F39240400D0521C104301D4400031
:10033000491EC2B20C06C0092018401C4008802A81
:1003400002D003E0002070BD40084000002900DA20
:100350000020184370BD70B502464A40D50F4000DA
:100360004A00ED0740085208002814D0002A12D095
:10037000C40DD30D41020120C0055202490A520AA0
:10038000E41A091812187D34914201D3641C00E06C
:100390004900002C01DA002070BD0023914201D3F6
:1003A000891A0343400849000028F7D100290AD0E0
:1003B000914202D10121C90705E0914201D20121F8
:1003C00001E00121C943E005C018401900F0ABF974
:1003D00070BD0000F0B507460846584087B0C00F12
:1003E000049048000E46590040084908BC1A88414C
:1003F00005D2384631461E4617460B46024658007F
:10040000400810434CD0300D039040055900400D7A
:10041000490D0590401A0290402872DA1803012114
:10042000000B09050843019004980092002805D0AC
:100430000199524200208841009201900298402187
:100440000A1A0199009800F04BF905460C466B46D4
:1004500007CB00F055F9C0197141039A0E0D002326
:10046000D71756401A467A40164344D0049A002AB9
:100470002DD0029A012A039A15DC1205C01A914167
:1004800001263605001C7141D20F059ED20700934C
:10049000019202962A46234600F093F907B0F0BD78
:1004A00038463146FAE71605224A0F46B218C01AF6
:1004B000B74101210905001C4F4100187F41114639
:1004C00018187941E20F10436D19644113E0E207F7
:1004D0006D0815436408C2071443039A01261205E8
:1004E000C01A91413605001C7141CE0740083043C7
:1004F0004908C01851412A46234600F055F9CDE776
:10050000FFE7049801224000C117121A00238B4113
:1005100004983146C417381AA141EEE730B40124DB
:10052000E407634030BC55E730B40124E407614080
:1005300030BC4FE70000E0FFF0B51FB488B00B9966
:100540000998002448400999C00F490049080991B9
:10055000C0070B990090490049080B910999089828
:10056000A64608431CD00B990A98084318D009984E
:1005700001244000420D4800410D09982405000364
:10058000000B204309900B980003000B20430B90B5
:1005900050181C494018002201901446104605E0EE
:1005A000002001460DB0F0BD032801DA034600E04B
:1005B00003239C46C11A0AAE0AE05F0008ADED5B5A
:1005C0004F00F75B7D430027AA187C41491C5B1E46
:1005D0006145F2DD410004AB5A522104120C0A437A
:1005E000240C401C0828DFDB01980290009970461B
:1005F00001910090059B049A0799069800F0E1F894
:10060000D0E700000DFCFFFF0122D207002800DB2D
:10061000101A002900DB511A814201D201207047D3
:10062000002070470122D207002800DB101A0029A1
:1006300000DB511A814201D9012070470020704728
:1006400010B500229623114600F075F810BDC20FB8
:10065000410040020123400ADB05D207090EC01801
:100660007F2901DA00207047962903DC9623591A66
:10067000C84001E096398840002AF4D040427047D3
:10068000C20FD207400040080BD0C10D0723DB0189
:10069000C91840020905400A1143C2084007114326
:1006A0007047002001467047CB0FDB07490010B5AB
:1006B000490802460A4307D00A0D07240903E4014A
:1006C000090B121B002A01DC002010BDC900440FD9
:1006D0000C43C100E018D205801800F024F810BDCA
:1006E00010B5202A04DB0146203A9140002010BDBD
:1006F000914020239C1A0346E3401943904010BDCB
:1007000010B5202A06DBCB170846203A1041C11746
:100710000B4306E00B461341D0402024A21A91401F
:100720000843194610BD002904DA401C490001D1D4
:1007300040084000704770B40024050C05D1102417
:10074000000402D1002921D01124050E01D100029C
:100750000834050F01D10001241D850F01D180004F
:10076000A41C002801DB4000641C002908D02025BF
:100770002E1B0D46F540A14000D00121294308431E
:1007800001061B1B000ADB1D02D5002070BC704750
:10079000DB05181880180029F8DA401C4900F5D14B
:1007A00070BC40084000704710B5002B08DA0024E8
:1007B000401C614192185B411A4301D1400840003E
:1007C00010BDF0B51FB482B005460C0003D008463A
:1007D00001F076FF02E001F073FF20300246009046
:1007E00021462846FFF77CFF049B059A04460F46E6
:1007F00018431143084314D0184610431BD00098E7
:1008000040210A1A1846059900F040F805460E46A0
:10081000009A05990498FFF763FF084305D001206B
:1008200004E02046394607B0F0BD0020C11705435B
:100830000E432C43374300990E986305401A7905FF
:10084000E40A00220C43FD0A0A3002D500200146CA
:10085000E9E70105101969410C9C0D9D00196941DA
:10086000FFF7A2FFDFE70000064C0125064E05E07A
:10087000E36807CC2B430C3C98471034B442F7D3C1
:10088000FFF722FCF82700001828000010B5202AE6
:1008900004DB0846203AD040002110BD0B46D3406F
:1008A000D0402024A21A91400843194610BD80B5BB
:1008B00001F0F8F901F0FAFD002080BD10B50949FA
:1008C0000979002901D1892100E08B21CC05FFF7AE
:1008D000B7FE2146FFF73FFD014603484068FFF79A
:1008E000FDFC10BDB00100208000002080B500F0AC
:1008F0002DF880BD1F210901344A13688B43C006BF
:10090000C00D1818106000207047C04602490A68E0
:1009100082430A607047C046B42400400120C003EF
:100920002A490A6802430A607047C04603490968B9
:100930000140481E814108467047C046B02400402F
:10094000014800687047C046A02400401CB5012043
:10095000FFF7ECFF01280DD101242046FFF7D6FF59
:10096000FFF7EEFF01A908800022204600F072FA8E
:1009700000F032F81CBD000070B5002824D00446F9
:10098000124D01262E60022001F09AFB6068E1689A
:10099000014320690843A16801436069084329684D
:1009A000014329602068B1026A688A43C007400D8C
:1009B00010186860A069696804229143C007400F5D
:1009C00008186860002070BD042070BD0424004039
:1009D0000348012101607047014800210160704710
:1009E000C0240040B0B588B001AC1C21204601F005
:1009F0003BFB10200125294601F02AF900F048F9B7
:100A000000200790A9030691059069020491032133
:100A1000090303910C21029101902046FFF7ACFFDE
:100A200008B0B0BD80B51C20012101F011F94020B3
:100A30000A2100F0D1FD80BD80B51120FFF75AFFDB
:100A4000FFF76CFF18200321012200F055FC80BD48
:100A50007FB56D461021284601F006FB0124204693
:100A600000F0D6FC0C20039003200290042601968F
:100A700000200090284601F085F8072001F0DAF800
:100A80003046214600F074FF304601F0EBF87FBDA0
:100A900070B588B001AC1C252046294601F0E4FA67
:100AA0000121284601F0D4F80725002630462946C2
:100AB000324600F0A5FD029630462946224600F057
:100AC0003FFD08B070BDF0B58BB0064601AF2821E0
:100AD000384601F0C9FA08200124214601F0B8F88F
:100AE00000253D743D720695019507940494029586
:100AF0002846394600F018F9704286B22846314639
:100B000000F0E6F82846314600F0EEF8284629467F
:100B100000F0CAF8284600F0FDF80E200321224616
:100B200000F0EAFB0BB0F0BDF0B58BB007AF1026BC
:100B30003846314601F098FA0B200124214601F095
:100B400087F80025099507940A950895384601F01D
:100B5000DFF90620059001950090684601F052F9F2
:100B60000E48016831430160284601F08FF928469C
:100B700001F03CF9284601F0FBF80226304601F06E
:100B8000F7F8284601F0B2F9304601F0AFF9052038
:100B90000321224600F0B0FB0BB0F0BD245800400A
:100BA00070B588B001AC1C252046294601F05CFADE
:100BB00001262846314601F04BF80296002508260A
:100BC00028463146224600F0BBFC02222846314628
:100BD00000F0FAFC08B070BDF0B591B00AAE1C256B
:100BE0002A4A30462946904701242846214601F0EA
:100BF0002FF800250B95092728463946324600F084
:100C00009FFC28463946224600F0DEFC0B940A275A
:100C100028463946324600F093FC2846394622469B
:100C200000F0D2FC04AE18213046184FB84703A894
:100C30000221B84768460C21B8472846214601F0F2
:100C400007F80695C0200490E12040020990042096
:100C500005906002079000F08BFF0890A7073846C8
:100C6000314601F09BF93846294601F081F93846B2
:100C7000214601F07DF93846294601F088F93846C9
:100C8000214601F084F911B0F0BDC0466920000092
:100C900080B50448016801220A430260022001F085
:100CA0000FFA80BD0024004001228A40D143000297
:100CB000014A815000207047140C00400002034A92
:100CC0008258CA40012010407047C046100C0040B6
:100CD00010B50002034A8358094C1C40611881502A
:100CE000002010BD000C004010B50002034A8358DC
:100CF000034C1C4061188150002010BD040C0040C2
:100D00000000FFFF000228494258012313434350CB
:100D10000020704700022449425801239B021343DC
:100D2000435000207047C04670B50B6800021E4A51
:100D3000845803252D03AC439B079B0CE318835079
:100D40004B68845801256E02B443DB079B0DE31802
:100D500083500B7A84582D02AC43DB07DB0D1B1943
:100D60008350CB6884587025AC435B075B0EE31857
:100D700083500B7C84580825AC43DB071B0FE3181A
:100D800083504B6984580425AC43DB075B0FE318A1
:100D90008350896983580224A343C907890F5918CE
:100DA0008150002070BDC0460C0C004080B5C0468C
:100DB000C04680BD70B50D46DF4E318900290BD08D
:100DC000491C318189B2332906D300F0D1F80020C3
:100DD0003081F071022419E0012808D10124F47156
:100DE00000F0ECF8F5603089401C30810EE0F079BD
:100DF000002400280AD1284600F00AF8002805D06F
:100E000000F0DCF83089401C30810124204670BDA0
:100E1000B0B505460C49FFF7F7FB04460B492846D9
:100E2000FFF700FC0A490A88521C0028134600D12B
:100E30000346002C00D11A460A8090B2322801D80D
:100E40000020B0BD0120B0BDCDCCCCBD3333F33FCD
:100E50003C020020FEB500240294032800D982E061
:100E60000D46C046784400794000874401040E379F
:100E700000F0FAF877E02888FFF720FDEB49C8601A
:100E8000C86800F09DFA04466DE0E84EF168002065
:100E9000FFF790FF02A800F073FA044600285BD128
:100EA0008C4881680298FFF711FA71780026324663
:100EB00000F0BEF9074687480088FFF7C1FB0146EE
:100EC0003846FFF748FA2949FFF708FA074631463E
:100ED000FFF7A8FB00282BD1BF202AE01646D34FEE
:100EE000F9680020FFF766FF02A800F049FA0446FF
:100EF000002831D1774881680298FFF7E7F97978BF
:100F00000022019200F094F9074672480088FFF72A
:100F100097FB01463846FFF71EFA1449FFF7DEF942
:100F200007460199FFF77EFB00280AD1BF2009E0A0
:100F30003F2001063846FFF778F9FFF788FB288045
:100F40000AE03F2001063846FFF76FF9FFF77FFB05
:100F5000288000F09BFB3080832040005349085CD0
:100F6000002800D002242046FEBDC046002474495B
:100F7000FEB5AE4880797F27074002ADAF700024F0
:100F80006C704120287001AEB4703480032200924E
:100F90002846314600F090FCFF20A8706C7021209C
:100FA000287028463146009A00F086FCB078B84296
:100FB00002D19E48877101242046FEBDFEB59B48A4
:100FC00080798027074302ADAF7000246C70412008
:100FD000287001AEB4703480032200922846314656
:100FE00000F06AFCFF20A8706C7021202870284651
:100FF0003146009A00F060FCB078B84202D18B48CC
:10100000877101242046FEBDB0B50125402400288B
:1010100006D0012807D10F2040010725002400E059
:1010200078202C49088000F07DF800F055F8002861
:1010300014D000F0D5F8002810D0FFF799FF002851
:101040000CD0284600F0A4F8002807D03021204614
:1010500000F074F8002801D00120B0BD1D483C21EB
:1010600001800020B0BDC04680B500F017F900280F
:101070000BD06E484189491C418189B2332908D37C
:10108000002141810121017080BD6848002101706B
:10109000418180BD10B504462120C100D848FFF72A
:1010A000B9F8012C01D100F0DBFB10BDF80D0020D8
:1010B00010B50446074842608360012902D15B48AD
:1010C000012101715948447000200122214600F09D
:1010D000AFF810BD80000020FEB554484079BF270E
:1010E000074002ADAF7000246C704020287001AE44
:1010F000B4703480032200922846314600F0DCFBB5
:10110000FF20A8706C702020287028463146009A75
:1011100000F0D2FBB078B84202D1444847710124B4
:101120002046FEBD80B5012000F09CF83F4800211C
:101130008171417180BDC046B0010020FEB53B4ABF
:10114000927902AD00246C7041232B708F231340E1
:10115000CF2707400F431F43AF7001AEB4703480F8
:10116000032200922846314600F0A6FBFF20A8701B
:101170006C702120287028463146009A00F09CFBB4
:10118000B078B84202D12948877101242046FEBDBB
:10119000FEB52649897902AD00246C7041222A707F
:1011A000F0270F400743AF7001AEB47034800322C4
:1011B00000922846314600F07FFBFF20A8706C703B
:1011C0002120287028463146009A00F075FBB0783F
:1011D000B84202D11548877101242046FEBDC046A1
:1011E000FEB512484079DF27074002ADAF700024FA
:1011F0006C704020287001AEB470348003220092DD
:101200002846314600F058FBFF20A8706C70202063
:10121000287028463146009A00F04EFBB078B8425C
:1012200002D10248477101242046FEBDB0010020D2
:10123000B0B5FFF725FA04460D4601F0A1F80246C5
:101240000B4620462946FFF769F9FFF72DFA01F012
:10125000F3F801F017FAB0BD80B501F027F880BDB2
:101260000020704780B500F009FF80BD80B54020A8
:101270000C2100F053F980BD80B540200C2100F016
:10128000B5F980BD80B50020062100F0AFF980BD22
:1012900080B50020062100F041F980BD80B54020D6
:1012A0000B2100F045F94142484180BD80B5402006
:1012B0000E2100F03DF9411E4842484180BD80B5F5
:1012C00040200F2100F02AF980BD80B540200F2179
:1012D00000F08CF980BD80B540200D2100F01EF992
:1012E00080BD80B540200D2100F080F980BD80B523
:1012F000C046C04680BD0000B0B500280BD41F23F7
:10130000034001249C401A4B1C60032304469C4369
:10131000184BE31806E00F230340083B0324A343C4
:10132000124C1B198407E40E8907090EA140FF2502
:10133000A5401C68AC430C431C60012A08D100285E
:1013400012D41F210840012181400C480160B0BD2A
:10135000002809D41F21084001218140064801606E
:10136000BFF34F8FBFF36F8FB0BDC0461CED00E0E1
:1013700080E200E000E400E080E100E000E100E065
:1013800070B51F4A81214C00135B83214D00515DD4
:10139000002904D101210E02965BB3420DD0002139
:1013A00051555D1C3F262E4016534124A400155B69
:1013B0006D1E15539B00D2580260084670BDC04692
:1013C00070B5832149000E4A535C012B01D10120E5
:1013D00070BD01231C02155BAE00905141208000BE
:1013E000165A761C1652681C3F250540155381205D
:1013F0004000145A0020A54200D1535470BDC0468D
:10140000F80D002080B5C046C046C046C04680BD2D
:1014100009490A4ACA600A4ACA600A680C239A4300
:1014200083071B0FD2180A6009680907890F401A41
:10143000411E88417047C046200002405A5A0000B1
:10144000A5A50000B0B588B01C20012100F000FC6B
:10145000002405940494029406252046294600F0B1
:101460005DF801AA2046294600F06AF808B0B0BD30
:1014700010B588B01C200124214600F0E9FB079438
:1014800000200690059004900394029440200B21C4
:1014900001AA00F055F808B010BD0000F0B58FB0FB
:1014A0001C200121009100F0D3FB00240994402569
:1014B0000D27154A28463946904708AE134B284653
:1014C0003946324698470F27284639460E4A9047F4
:1014D0002846394632460D4B98470C272846394650
:1014E000094A9047284639463246084EB047009888
:1014F0000790069405940494039002900E2101AA8B
:101500002846B0470FB0F0BD1D1500004115000082
:101510000268CA40012010407047000080B5034AAD
:101520008018012200F014FA002080BD140D024042
:1015300080B5024A8018FFF7EBFF80BD040D024022
:10154000FEB515460E4601901C49471838460C302A
:101550000024314622460294194B9847B000019965
:1015600008181C494450384608302A783146144C33
:10157000A0472A7938463146A04738461C302A7A97
:101580003146A047384620302A7B3146A0473846AE
:1015900024302A7C3146A0472C372A7D38463146F4
:1015A000A047A8690121C903064A13688B43C003F9
:1015B00080B2181810600298FEBDC046000D0240AF
:1015C00051190000080F024089004018014942509B
:1015D00000207047000C024080B5034A80180122A9
:1015E00000F0B6F9002080BD0C0D024080B5034A22
:1015F0008018012200F0ACF9002080BD100D0240DF
:1016000080B5034BC01800F0A3F9002080BDC04690
:10161000080D024081B00020009000980028FCD006
:1016200001B0704780B5C046C04680BD80B5C04699
:10163000C04680BD80B5C046C04680BD80B5C046AE
:10164000C04680BD80B5C046C04680BD80B5C0469E
:10165000C04680BD80B5C046C04680BD80B5C0468E
:10166000C04680BD80B5C046C04680BD80B5C0467E
:10167000C04680BD80B5C046C04680BD80B5C0466E
:10168000C04680BD80B5C046C04680BDF0B589B0BB
:10169000804BD968FF22F632914207D000290DD144
:1016A00000219961D9611962596206E0D969CA0FAE
:1016B0008918491099617D21890099620024214689
:1016C00000F046FD0894214600F080FD0746714871
:1016D0000469600070490F52661C604D304629460F
:1016E000FEF716FD6B4B1961DA68FB2A2CD37D20BF
:1016F0008000401C824205D2D869B84200DB074610
:10170000DF6121E0986A07920690101AC208986972
:101710007D2A01D340109861B842079A14DA186AFA
:1017200000280FD0121A05921A78002A039000D0D0
:101730003B22586A0490059890420BD20498B84214
:1017400049DA079A1A625F62089F501CD86038B263
:1017500009B0F0BD079A1A625F621A79002A28461A
:1017600000D1104602460598401C0027059282428F
:101770000297079A38D908978142059B00D3002326
:10178000091A5F180190039818180019801A02901E
:10179000324930461646019CFEF7BAFC4543E84301
:1017A000029941182046059A131B0293039BD218F5
:1017B000921B0223384E9A4210D05C1EA74201D3DE
:1017C0000D4601E0059D4D196D00755B002D06D19C
:1017D0005B1C491EEFE7089F079AB6E7029C20189A
:1017E00002902C4B089F079A0298141AADD05869A2
:1017F00002280AD30698201A8004000C002100F069
:101800005BFD244BD880DA6858699C62401C5861A3
:10181000596B15464A1C032313401E4A53632A463C
:101820001C4B49005918049D0D87171B04280DD324
:1018300018463830042100F017FF164B81B2C90B4F
:10184000401800B240109861DA687EE72946A8B2D5
:10185000C00B281800B24010986176E7DC05000044
:1018600070B50C4E012434700025F5600A480B4910
:10187000FEF7D0FC3561756135647564B564F56457
:10188000B560F5623563B4802846214600F014FD4A
:10189000204670BDB800002040020020B80B0000B8
:1018A00080B5C046C04680BD80B5C046C04680BD3C
:1018B00080B5C046C04680BDF0B585B014460D4623
:1018C0000646FFF7CDFC002840D1FFF7CFFC0A20E9
:1018D000FFF7C8FC00200746029401950096A0423D
:1018E0002BD0345C00260390072E20D8FFF7F9FC9C
:1018F00060B2002804943C4602D4FFF7E0FC01E00B
:10190000FFF7E3FC02273846FFF7ACFCFFF7E3FCE8
:10191000FFF7CCFC05463846FFF7A4FC681E85415E
:1019200060004719761C049C64000398DCE7019D65
:101930002F54401C029C009ED1E70A242046FFF74A
:1019400091FCFFF799FC2046FFF78CFC05B0F0BD39
:1019500001238B40012A02D10168194301E001688B
:1019600099430160704780B5C046C04680BD000005
:1019700070B50C46C44DC549A960C549A9602E6A19
:10198000042815D8784400794000874402132D3D7F
:101990005800601E2146814128680122904340186A
:1019A00028600020002C65D0E9680905FCD561E0BD
:1019B00004205FE001200007296A014329622F48C3
:1019C000016C03220A430264601E214681414800E3
:1019D000296802229143081828600020002C49D071
:1019E00029694906FCD545E0601E214681418800F1
:1019F000296804229143081828600020002C39D05F
:101A00006969C904FCD535E001200007296A014352
:101A100029620320800319490A6802430A60601E94
:101A200021468141C800296808229143081828608E
:101A30000020002C1ED0A9694906FCD51AE001201F
:101A400001042A6A0A432A620B490A6802430A60AF
:101A5000142000F035FB601E2146814108012968F1
:101A600010229143081828600020002C02D0E96B56
:101A70004903FCD52E6270BD002400408C0D02404D
:101A8000FCB569480688458881880191C488078C1F
:101A9000954A11460C3908680006430F042B0FD8ED
:101AA000009462487B441B795B009F4402520B10F8
:101AB000130013688E480340B34218D1274848E00A
:101AC000002046E09068874A0240BA4215D00120C3
:101AD000C0033EE0136B03241C40032C074634D1A3
:101AE000136883480340B3420AD11C4F2DE01368AA
:101AF0000340AB420AD11A482BE04B20400228E0B9
:101B000013680340AB4208D1154F1EE01368034031
:101B1000019CA34208D113481BE013680340019CB9
:101B2000A34208D10F4F10E0126802400098824291
:101B300008D00E480DE0136803400098834203D09C
:101B40000A4F02E0084804E0074F106BC005000F81
:101B5000784309684905490FC840FCBD00366E014D
:101B6000408651010024F40000127A0000093D0073
:101B700080B5FFF785FF44490968C904890FC8404B
:101B800080BDC046F0B528490E884D888C88C9882C
:101B90008268032A40D1544A1768554B1F40B74208
:101BA00002D1C668022E3DD816681E40AE4202D150
:101BB000C568022D36D815681D40A54202D1C468FB
:101BC000032C2FD812681A408A4202D1C168062914
:101BD00028D8036803214C03434A156BA5439B0790
:101BE0005B0CEB1813634368146B1C25AC435B0759
:101BF000DB0EE3181363C3680F246401156BA54360
:101C00001B07DB0DEB18136380680840136B8B43D5
:101C1000181810630020F0BDC168044A4A43044903
:101C20008A42D6D90620F0BD000C10000048E80119
:101C3000006CDC020721C903044A13688B43400788
:101C4000800B1818106000207047C0463C200040F0
:101C500080B50A4601460248FFF77AFE002080BDA3
:101C60002020004080B50849084A8A60084A8A60F6
:101C70000A68E0239A434001C0B21018086000F0DF
:101C800009F8002080BDC046002000405A5A0000DC
:101C9000A5A5000080B5FFF7F3FE0149086080BDEF
:101CA0008C00002010B50E48418B0E4A0A400E4CA5
:101CB000A1680E4B0B409918A16000880C490140A7
:101CC00020680C4A024050182060FFF7E3FF60696B
:101CD0000121090762690A436261606110BDC04663
:101CE000080C1000FF0300000C20004000FCFFFF68
:101CF000FF07000000F8FFFF80B500F019F880BD75
:101D000080B5C046C04680BD80B5C046C04680BDD7
:101D100080B500F03FF880BD80B5C046C04680BDAC
:101D200080B5C046C04680BD80B5C046C04680BDB7
:101D3000B0B5002420462146FEF7C0FF012815D18A
:101D4000274DE878002801D0012003E0FEF740FE8F
:101D5000022001242870EC702879002802D0A8699C
:101D6000401CA86100200146FEF79EFFB0BDC046A2
:101D700001218140C8430249086000207047C046E5
:101D80001458004002490968C140012008407047CA
:101D900010580040B0B500242046FFF7F3FF01289B
:101DA00008D10F48012141704189491C418100201F
:101DB000FFF7DEFF0220FFF7E5FF01280FD100F05B
:101DC00011F8074DA88100F05BF86989090408182B
:101DD000E8616C810120A8700220FFF7C9FFB0BD47
:101DE000280100200548006880B2704703490A684E
:101DF000034B134018180860002070470458004037
:101E00000000FFFFB0B502681C490B68E024A34343
:101E10005201D2B29A180A6043680122D4020D68B6
:101E2000A543DB071B0DEB180B60836814030D68DB
:101E3000A543DB07DB0CEB180B60C368D2074C68CB
:101E40009443DA07A2184A60026907231C074D6809
:101E5000A54352075208AA184A6042691A404C68C2
:101E60009C43A2184A6080694A6870239A434007DD
:101E7000400E101848600020B0BDC0461858004001
:101E80000148006880B270473C580040032823D8BE
:101E90003249C046784400794000874401060F1457
:101EA000012002020B68934303E0012002020B6849
:101EB00013430B604202086890430CE001200202C9
:101EC0000B68934303E0012002020B6813430B608D
:101ED0004202086810430860002070471F480168EC
:101EE00001220A43026000207047C04601460120DB
:101EF0001A4A002905D0022908D10120000218320F
:101F000000E0800211680143116000207047C04664
:101F100010B5026803210B0310490C689C4392071B
:101F2000920CA2180A6042680B687024A3435207FF
:101F3000520E9A180A6082680B680424A343D207E1
:101F4000520F9A180A60C068012292030B689343EB
:101F5000C007400C18180860002010BD0C58004045
:101F600080B5C046C04680BD80B5C046C04680BD75
:101F700010B5143000242246FFF7EAFC204610BDBD
:101F800080B5001D0122FFF7E3FC002080BD80B575
:101F9000001D0122FFF7DCFC002080BDF8B5002900
:101FA0002CD00E4605460024446003C9B268F3688D
:101FB0000A431A4302436A60306880210143C02902
:101FC0001DD1F068400A80000EA10F5A3069FEF75B
:101FD00037FB00907069B840FEF732FB014600986D
:101FE000FEF7B9F93F210906FEF71FF9FEF72FFBAF
:101FF000A86104212846FFF7C3FF00E0042420461F
:10200000F8BDC046040000000300000070B50E4695
:1020100004460546103503212846FFF779FA0028C3
:10202000F9D02068FF2188438019206001212846CB
:10203000FFF76EFA0028F9D001212046FFF798FF3C
:10204000002070BD80B5C046C04680BD80B5C0468A
:10205000C04680BD80B5C046C04680BD098809B273
:10206000008800B2401A7047002806D0002904D02A
:1020700000220270401C491EF8E77047F8B504467C
:10208000304E314870600027B760052030600B4D3E
:10209000002C0DD0641EB7602C4800682946FEF75E
:1020A00037F82949081A401CB1688142FCD8EFE78B
:1020B0003068012188433060F8BDC0461027000019
:1020C000F8B504461F4E204870600027B760052011
:1020D00030600B4D002C0DD0641EB7601B480068AB
:1020E0002946FEF715F81849081A401CB1688142C4
:1020F000FCD8EFE73068012188433060F8BDC04666
:10210000A0860100F8B504460E4D0F486860002710
:10211000AF60052028600D4E002C0DD0641EAF600E
:102120007D20C1003068FDF7F3FF0749081A401C05
:10213000A9688142FCD8EFE728680121884328601C
:10214000F8BDC04610E000E0FFFFFF008C0000205B
:10215000F8B5002907D0574900200864486488640E
:10216000C864C8622DE0534AD66AB10051180864A9
:10217000F31E0024144D009631462046042C17D03F
:10218000002B01D41A4600E01A1D9200494F403737
:10219000BA58002901D40E4600E00E1DB600BE5903
:1021A000B21A2E5F564330185B1C491EA41CE5E78B
:1021B0000099022901DC4A1C00E000223D49CA6264
:1021C000800B00B2F8BDC0460C27000070B5002996
:1021D00005D03848002282600263427127E008225D
:1021E00034498B5E0022D443002801D5A34203DC8E
:1021F000A0421EDD002B1CD50A4630324C894B799B
:102200005D005453012213401C4654404C714D8EC6
:102210000C8E002B2E4600D12646002B00D12C46DA
:10222000A31B1C0400D01A46034608814B8110B240
:1022300070BD0A23CC5EE317E5185D40C317C618CE
:102240005E40AE420346F0DC2346EEE7B0B5014601
:10225000154CE08902460A4316D0628A951C6582B5
:10226000002906D0884204D0E1814448FDF750FFA0
:102270002082A179A8B21E2809D3002907D0FFF730
:1022800001F8002060820DE0FEF7FCFFB0BD0029E0
:1022900009D1218A1E39814205D8FEF7F9FF0020B5
:1022A00060820120A071B0BD280100200148C088D3
:1022B0007047C046B8000020FEB500290AD02B4860
:1022C00000244460846044804B20C1002848FDF70E
:1022D000A1FF49E00146EB3989B209096F2902D310
:1022E0002248848840E0214DEC886200204B9852BF
:1022F0006A89571C6F816A8816186E804B2081008E
:10230000601C80B20191FDF703FFE980A988602974
:1023100001D218480DE07D20732901D2400108E068
:10232000992901D2144804E0AC2901D3C00000E08F
:1023300000010290B1B2029888420ED27F1E6F81D6
:102340002C89601C80B20199FDF7E2FE29816000B2
:102350000749085A361A6E80ECE7BAB2074850436C
:10236000FDF7D6FE0446A880A0B2FEBD08010020FD
:10237000000F002088130000B80B000060EA000086
:10238000F0B587B00B460246284903C90292039371
:10239000FEF7D2F80D46C849C9680191CC1C5827F0
:1023A000782F2CD0E117890F621803218A43A11AD4
:1023B0000690CB001E4EF2581C48C119503903C973
:1023C000F6187368FEF7B8F8059504900D4619499C
:1023D000C859C9194968326A736AFEF7ADF80246EE
:1023E0000B4604982946FEF799F802460B460698D4
:1023F0000599FDF7EFFF0D46641E0837D0E7019BF6
:10240000DA0002990A4CA150A21810625562039991
:1024100051605B1CD917890F5918032291435A1A2E
:10242000A549CA60294607B0F0BDC046900000200B
:10243000C001002008000020F8B519490E88B1003D
:10244000184A50500024274625460096E42C1AD0FE
:102450001548015930B28000124A1058FDF73EFF6E
:10246000FEF70EF902460B4638462946FDF7B2FF45
:1024700007460D46701E01B2002901D4064600E051
:102480003836241DE2E70098401C81B2382900D973
:1024900000200349088038462946FEF705F9F8BDB3
:1024A000581100205C1100201427000084B0FEF7B2
:1024B000CFFAFEF791FBFEF7EBFAFEF7B3FAFEF761
:1024C00091FAFEF7B9FA5F48FEF7FDFAFEF768FBEE
:1024D000FEF72AFBFEF7B6FFC0200721FFF728F81A
:1024E000401E4142414158480170FEF7C1FFFEF7CE
:1024F000D5FF00250124554A554B28462146FEF7B5
:10250000D7FDC820FFF7FEFD2046FEF77DFD0094B5
:102510002046FEF7BFFDFFF7E1FC2846FEF7F2FB81
:1025200003A8058002A8019505806F200401494E8B
:10253000494D3078002839D03078022804D1002065
:1025400001460246FEF786FC287800280BD00128B9
:102550000BD1019800280098019006D1012001902C
:10256000FEF798FD01E00020019037480078002830
:1025700007D0287800280ED0012813D1FEF76CFE72
:102580000DE07069032809D2287801280AD1706902
:102590000228F3D906E07069032803D33089FFF7D6
:1025A00055FE01E0FEF774FE002030702878012807
:1025B00014D1032003A902AF3A46FEF74BFC0028D2
:1025C0000CD13888002809D0FEF746FE1E49487015
:1025D00001218A07C1B21046FFF718FD7078002864
:1025E00009D0002070702146DF31B2698A4202D9D9
:1025F0003071B0617061B07800289AD00020B0705E
:10260000F169164A8918A14201D27079401C707193
:10261000707902288DD3B06973280CD3B069104942
:10262000884208D8B1690F48FDF772FD401E30811D
:102630007069401C70610020B061707101203071C0
:1026400077E7C04680BB000000000020000020406B
:102650006666663F28010020B0010020C0DFFFFF52
:10266000ED03000030750000B0B50C4605460222AF
:10267000034BFDF777FD01208443285FB0BDC046C2
:102680005D200000B0B50C4C21698A00A218506191
:10269000481C0521FDF752FD216100252846142D17
:1026A00005D061194969FDF7C0FD2D1DF7E7034904
:1026B000FDF751FEB0BDC046480100200000A0401B
:1026C0002021020C01D010211046020A01D0104630
:1026D0000839020901D01046091F820801D01046AE
:1026E000891E420801D0881E7047081A704702E010
:1026F00008C8121F08C1002AFAD17047704700208D
:1027000001E001C1121F002AFBD170479DF7CA5397
:1027100036AC6308FD58373A862F7F3A12B6483AEE
:102720002ED091A1922095BAC9FA07BB5C8503BB54
:102730000B78D5B915EF1A3BC3EA9E3BC83BA63BC5
:102740005A67EC3A792E89BB623821BC97AA35BC0E
:10275000C85FAEBB9C25CD3BA621943CFC10B73C8A
:102760004AA65A3C87C905BCA0D007BDF9A93FBD00
:1027700066310EBD21AB1B3CC6CCA23DAA78203EE3
:10278000220F5E3EE44A753E220F5E3EAA78203E4E
:10279000C6CCA23D21AB1B3C66310EBDF9A93FBDA5
:1027A000A0D007BD87C905BC4AA65A3CFC10B73C5F
:1027B000A621943C9C25CD3BC85FAEBB97AA35BCF7
:1027C000623821BC792E89BB5A67EC3AC83BA63BDC
:1027D000C3EA9E3B15EF1A3B0B78D5B95C8503BB6A
:1027E000C9FA07BB922095BA2ED091A112B6483AE9
:1027F000862F7F3AFD58373A182800000000002045
:10280000B8000000EE260000D0280000B80000202C
:1028100088130000FE2600000101020304000000EE
:10282000000000000000F03F00000040E2A50FC0E3
:1028300000000080D0791740000000C094F50EC061
:1028400000000020589FEE3F00000080BB4DEF3F8E
:1028500000000080BB4D0FC0000000A04C7A174064
:1028600000000080BB4D0FC000000080BB4DEF3F5B
:10287000000000000000F03F000000008A6C0EC065
:102880000000002071B6154000000000F3910BC05D
:1028900000000040A846EA3F3C00000033335340AC
:1028A0006666663F00093D00000000601EC4BE3E33
:1028B000000000601EC4DE3E000000C01613E73EAC
:1028C000000000601EC4DE3E000000601EC4BE3E6C
:04000005000000C136
:00000001FF
