:020000040000FA
:1000000038140020D5000000EF000000A515000006
:1000100000000000000000000000000000000000E0
:10002000000000000000000000000000F3000000DD
:100030000000000000000000F5000000F7180000BC
:10004000FD150000051600000D1600001516000035
:100050004D1200009D1C0000F51C0000FD1C00005E
:10006000D5150000DD15000039180000411800000A
:10007000B5150000BD150000851C00008D1C00009A
:10008000951C0000CD150000A51C0000AD1C000053
:10009000B51C0000ED150000091E0000311800001D
:1000A000ED080000F5150000F91D0000011E00001C
:1000B000E5150000C515000061130000FD0C0000EF
:1000C0000348854600F0D0FB00480047AF08000019
:1000D0003814002009480A4A002100A1814200D9B1
:1000E0000244084802600848804708480047FEE785
:1000F000FEE7FEE7FEE7FEE7FEE700000000002067
:100100000000000008ED00E0311C0000C10000000C
:1001100030B50B46014600202022012409E00D469F
:10012000D5409D4205D31D469540491B2546954027
:1001300040191546521E002DF1DC30BD70B500246B
:100140002546002801DA01244042002901DA012570
:100150004942FFF7DDFFAC4200D04042002C00D006
:10016000494270BDFFB585B006460698144602ADFB
:10017000022846D3002C44D0002003902846803823
:1001800006990027491EFF430191009023E0604338
:10019000801961438A1901461046089A9047002841
:1001A00004DCB8002958C919295014E068682246AF
:1001B000604381190098C06F6043801908E00B7894
:1001C0009C4603780B7063460370401C491C521E0A
:1001D000002AF4D17F4200986968C06F8842D6DC5B
:1001E00022463046089BFFF7BDFF00980699C06F76
:1001F0002246091A401C60438019491E089BFFF7DC
:10020000B1FF09B0F0BDD2B201E00270401C491E3E
:10021000FBD270470022F6E710B513460A460446A3
:100220001946FFF7F0FF204610BDF8B502464A40D8
:10023000D40F42004B0052085B089A4202D2024699
:10024000084611464A0023D0C30D4A00DDB2120E03
:10025000AD1A202D35DA49020126490AF6058A1918
:10026000002C00D0524220214F1B1146B9402A4198
:100270001018C20D9A4221D0002C17D0012D08DC95
:10028000DA05801AD20F8019D207DBB200F053FAD8
:10029000F8BDDA05801A012340001B06C01880183B
:1002A0005A428018CA0F1043490007E04908C207A4
:1002B0001143DA05801A80194008801800F033FADB
:1002C000F8BD61000122511A001BF7E70122D20795
:1002D0005140AAE70122D2075040A6E7024670B576
:1002E0004A40D30FDB0740002DD04A002AD0010E30
:1002F000140E000212020919400A520A8418E5017C
:1003000004465443000A120A2E045043A419421909
:10031000200CC543AA18120C0125AD03521C52191A
:1003200012047F39240400D0521C104301D4400031
:10033000491EC2B20C06C0092018401C4008802A81
:1003400002D003E0002070BD40084000002900DA20
:100350000020184370BD70B502464A40D50F4000DA
:100360004A00ED0740085208002814D0002A12D095
:10037000C40DD30D41020120C0055202490A520AA0
:10038000E41A091812187D34914201D3641C00E06C
:100390004900002C01DA002070BD0023914201D3F6
:1003A000891A0343400849000028F7D100290AD0E0
:1003B000914202D10121C90705E0914201D20121F8
:1003C00001E00121C943E005C018401900F0ABF974
:1003D00070BD0000F0B507460846584087B0C00F12
:1003E000049048000E46590040084908BC1A88414C
:1003F00005D2384631461E4617460B46024658007F
:10040000400810434CD0300D039040055900400D7A
:10041000490D0590401A0290402872DA1803012114
:10042000000B09050843019004980092002805D0AC
:100430000199524200208841009201900298402187
:100440000A1A0199009800F04BF905460C466B46D4
:1004500007CB00F055F9C0197141039A0E0D002326
:10046000D71756401A467A40164344D0049A002AB9
:100470002DD0029A012A039A15DC1205C01A914167
:1004800001263605001C7141D20F059ED20700934C
:10049000019202962A46234600F093F907B0F0BD78
:1004A00038463146FAE71605224A0F46B218C01AF6
:1004B000B74101210905001C4F4100187F41114639
:1004C00018187941E20F10436D19644113E0E207F7
:1004D0006D0815436408C2071443039A01261205E8
:1004E000C01A91413605001C7141CE0740083043C7
:1004F0004908C01851412A46234600F055F9CDE776
:10050000FFE7049801224000C117121A00238B4113
:1005100004983146C417381AA141EEE730B40124DB
:10052000E407634030BC55E730B40124E407614080
:1005300030BC4FE70000E0FFF0B51FB488B00B9966
:100540000998002448400999C00F490049080991B9
:10055000C0070B990090490049080B910999089828
:10056000A64608431CD00B990A98084318D009984E
:1005700001244000420D4800410D09982405000364
:10058000000B204309900B980003000B20430B90B5
:1005900050181C494018002201901446104605E0EE
:1005A000002001460DB0F0BD032801DA034600E04B
:1005B00003239C46C11A0AAE0AE05F0008ADED5B5A
:1005C0004F00F75B7D430027AA187C41491C5B1E46
:1005D0006145F2DD410004AB5A522104120C0A437A
:1005E000240C401C0828DFDB01980290009970461B
:1005F00001910090059B049A0799069800F0E1F894
:10060000D0E700000DFCFFFF0122D207002800DB2D
:10061000101A002900DB511A814201D201207047D3
:10062000002070470122D207002800DB101A0029A1
:1006300000DB511A814201D9012070470020704728
:1006400010B500229623114600F075F810BDC20FB8
:10065000410040020123400ADB05D207090EC01801
:100660007F2901DA00207047962903DC9623591A66
:10067000C84001E096398840002AF4D040427047D3
:10068000C20FD207400040080BD0C10D0723DB0189
:10069000C91840020905400A1143C2084007114326
:1006A0007047002001467047CB0FDB07490010B5AB
:1006B000490802460A4307D00A0D07240903E4014A
:1006C000090B121B002A01DC002010BDC900440FD9
:1006D0000C43C100E018D205801800F024F810BDCA
:1006E00010B5202A04DB0146203A9140002010BDBD
:1006F000914020239C1A0346E3401943904010BDCB
:1007000010B5202A06DBCB170846203A1041C11746
:100710000B4306E00B461341D0402024A21A91401F
:100720000843194610BD002904DA401C490001D1D4
:1007300040084000704770B40024050C05D1102417
:10074000000402D1002921D01124050E01D100029C
:100750000834050F01D10001241D850F01D180004F
:10076000A41C002801DB4000641C002908D02025BF
:100770002E1B0D46F540A14000D00121294308431E
:1007800001061B1B000ADB1D02D5002070BC704750
:10079000DB05181880180029F8DA401C4900F5D14B
:1007A00070BC40084000704710B5002B08DA0024E8
:1007B000401C614192185B411A4301D1400840003E
:1007C00010BDF0B51FB482B005460C0003D008463A
:1007D00001F01EFE02E001F01BFE203002460090F8
:1007E00021462846FFF77CFF049B059A04460F46E6
:1007F00018431143084314D0184610431BD00098E7
:1008000040210A1A1846059900F040F805460E46A0
:10081000009A05990498FFF763FF084305D001206B
:1008200004E02046394607B0F0BD0020C11705435B
:100830000E432C43374300990E986305401A7905FF
:10084000E40A00220C43FD0A0A3002D500200146CA
:10085000E9E70105101969410C9C0D9D00196941DA
:10086000FFF7A2FFDFE70000064C0125064E05E07A
:10087000E36807CC2B430C3C98471034B442F7D3C1
:10088000FFF722FC482500006825000010B5202A4B
:1008900004DB0846203AD040002110BD0B46D3406F
:1008A000D0402024A21A91400843194610BD80B5BB
:1008B00001F0BEF901F0CAFC002080BD10B5094965
:1008C0000979002901D1892100E08B21CC05FFF7AE
:1008D000B7FE2146FFF73FFD014603484068FFF79A
:1008E000FDFC10BDA80100208000002080B500F0B4
:1008F0002DF880BD1F210901344A13688B43C006BF
:10090000C00D1818106000207047C04602490A68E0
:1009100082430A607047C046B42400400120C003EF
:100920002A490A6802430A607047C04603490968B9
:100930000140481E814108467047C046B02400402F
:10094000014800687047C046A02400401CB5012043
:10095000FFF7ECFF01280DD101242046FFF7D6FF59
:10096000FFF7EEFF01A908800022204600F01AFAE6
:1009700000F032F81CBD000070B5002824D00446F9
:10098000124D01262E60022001F072FA6068E168C3
:10099000014320690843A16801436069084329684D
:1009A000014329602068B1026A688A43C007400D8C
:1009B00010186860A069696804229143C007400F5D
:1009C00008186860002070BD042070BD0424004039
:1009D0000348012101607047014800210160704710
:1009E000C0240040B0B588B001AC1C21204601F005
:1009F00015FA10200125294601F0F2F800F0F0F870
:100A000000200790A9030691059069020491032133
:100A1000090303910C21029101902046FFF7ACFFDE
:100A200008B0B0BD80B51C20012101F0D9F84020EC
:100A30000A2100F099FD80BD80B51120FFF75AFF13
:100A4000FFF76CFF18200321012200F003FC80BD9A
:100A50007FB56D461021284601F0E0F901242046BB
:100A600000F084FC0C2003900320029004260196E1
:100A700000200090284601F04DF8072001F0A2F870
:100A80003046214600F03CFF304601F0B3F87FBD10
:100A900070B588B001AC1C252046294601F0BEF98E
:100AA0000121284601F09CF80725002630462946FA
:100AB000324600F06DFD029630462946224600F08F
:100AC00007FD08B070BDF0B58BB0064601AF282118
:100AD000384601F0A3F908200124214601F080F8EE
:100AE00000253D743D720695019507940494029586
:100AF0002846394600F0C0F8704286B22846314692
:100B000000F08EF82846314600F096F8284629462F
:100B100000F072F8284600F0A5F80E2003212246C6
:100B200000F098FB0BB0F0BDF0B591B00AAE1C25FB
:100B30002A4A30462946904701242846214601F09A
:100B40004FF800250B95092728463946324600F014
:100B5000BFFC28463946224600F0FEFC0B940A27CB
:100B600028463946324600F0B3FC2846394622462C
:100B700000F0F2FC04AE18213046184FB84703A825
:100B80000221B84768460C21B8472846214601F0A3
:100B900027F80695C0200490E12040020990042027
:100BA00005906002079000F0ABFF0890A707384659
:100BB000314601F0BDF83846294601F0A3F8384621
:100BC000214601F09FF83846294601F0AAF8384638
:100BD000214601F0A6F811B0F0BDC0461D1E000070
:100BE00080B50448016801220A430260022001F036
:100BF0003FF980BD0024004001228A40D143000219
:100C0000014A815000207047140C00400002034A42
:100C10008258CA40012010407047C046100C004066
:100C200010B50002034A8358094C1C4061188150DA
:100C3000002010BD000C004010B50002034A83588C
:100C4000034C1C4061188150002010BD040C004072
:100C50000000FFFF0002284942580123134343507C
:100C60000020704700022449425801239B0213438D
:100C7000435000207047C04670B50B6800021E4A02
:100C8000845803252D03AC439B079B0CE31883502A
:100C90004B68845801256E02B443DB079B0DE318B3
:100CA00083500B7A84582D02AC43DB07DB0D1B19F4
:100CB0008350CB6884587025AC435B075B0EE31808
:100CC00083500B7C84580825AC43DB071B0FE318CB
:100CD00083504B6984580425AC43DB075B0FE31852
:100CE0008350896983580224A343C907890F59187F
:100CF0008150002070BDC0460C0C004080B5C0463D
:100D0000C04680BD70B50D46DF4E318900290BD03D
:100D1000491C318189B2332906D300F0D1F8002073
:100D20003081F071022419E0012808D10124F47106
:100D300000F0ECF8F5603089401C30810EE0F0796D
:100D4000002400280AD1284600F00AF8002805D01F
:100D500000F0DCF83089401C30810124204670BD51
:100D6000B0B505460C49FFF74FFC04460B49284631
:100D7000FFF758FC0A490A88521C0028134600D184
:100D80000346002C00D11A460A8090B2322801D8BE
:100D90000020B0BD0120B0BDCDCCCC3D9A99D93F4B
:100DA00034020020FEB500240294032800D982E01A
:100DB0000D46C046784400794000874401040E3750
:100DC00000F0FAF877E02888FFF778FDEB49C86073
:100DD000C86800F0A3FA04466DE0E84EF168002010
:100DE000FFF790FF02A800F079FA044600285BD1D3
:100DF0008C4881680298FFF769FA717800263246BC
:100E000000F0BEF9074687480088FFF719FC014645
:100E10003846FFF7A0FA2949FFF760FA074631463E
:100E2000FFF700FC00282BD1BF202AE01646D34F45
:100E3000F9680020FFF766FF02A800F04FFA0446A9
:100E4000002831D1774881680298FFF73FFA797816
:100E50000022019200F094F9074672480088FFF7DB
:100E6000EFFB01463846FFF776FA1449FFF736FAEA
:100E700007460199FFF7D6FB00280AD1BF2009E0F9
:100E80003F2001063846FFF7D0F9FFF7E0FB288046
:100E90000AE03F2001063846FFF7C7F9FFF7D7FB06
:100EA000288000F0BBFB3080832040005349085C61
:100EB000002800D002242046FEBDC046002474490C
:100EC000FEB5AE4880797F27074002ADAF700024A1
:100ED0006C704120287001AEB470348003220092FF
:100EE0002846314600F0B0FCFF20A8706C7021202D
:100EF000287028463146009A00F0A6FCB078B84227
:100F000002D19E48877101242046FEBDFEB59B4854
:100F100080798027074302ADAF7000246C704120B8
:100F2000287001AEB4703480032200922846314606
:100F300000F08AFCFF20A8706C70212028702846E1
:100F40003146009A00F080FCB078B84202D18B485C
:100F5000877101242046FEBDB0B50125402400283C
:100F600006D0012807D10F2040010725002400E00A
:100F700078202C49088000F07DF800F055F8002812
:100F800014D000F0D5F8002810D0FFF799FF002802
:100F90000CD0284600F0A4F8002807D030212046C5
:100FA00000F074F8002801D00120B0BD1D483C219C
:100FB00001800020B0BDC04680B500F01EF90028B9
:100FC0000BD06E484189491C418189B2332908D32D
:100FD000002141810121017080BD6848002101701C
:100FE000418180BD10B504462120C100DB48FFF7D8
:100FF00011F9012C01D100F0FBFB10BDF00D002018
:1010000010B50446074842608360012902D15B485D
:10101000012101715948447000200122214600F04D
:10102000AFF810BD80000020FEB554484079BF27BE
:10103000074002ADAF7000246C704020287001AEF4
:10104000B4703480032200922846314600F0FCFB45
:10105000FF20A8706C702020287028463146009A26
:1010600000F0F2FBB078B84202D144484771012445
:101070002046FEBD80B5012000F09CF83F480021CD
:101080008171417180BDC046A8010020FEB53B4A78
:10109000927902AD00246C7041232B708F23134092
:1010A000CF2707400F431F43AF7001AEB4703480A9
:1010B000032200922846314600F0C6FBFF20A870AC
:1010C0006C702120287028463146009A00F0BCFB45
:1010D000B078B84202D12948877101242046FEBD6C
:1010E000FEB52649897902AD00246C7041222A7030
:1010F000F0270F400743AF7001AEB4703480032275
:1011000000922846314600F09FFBFF20A8706C70CB
:101110002120287028463146009A00F095FBB078CF
:10112000B84202D11548877101242046FEBDC04651
:10113000FEB512484079DF27074002ADAF700024AA
:101140006C704020287001AEB4703480032200928D
:101150002846314600F078FBFF20A8706C702020F4
:10116000287028463146009A00F06EFBB078B842ED
:1011700002D10248477101242046FEBDA80100208B
:10118000B0B5FFF77DFA04460D4600F0C9FF0246F0
:101190000B4620462946FFF7C1F9FFF785FA01F013
:1011A0001BF801F017F9B0BD80B500F027FF80BD36
:1011B0000020704780B500F03BFE80BD80B5002068
:1011C000062100F073F980BD80B50020062100F0F3
:1011D000D5F980BD80B54142484100F001F880BD9D
:1011E00080B5002804D04020092100F05FF980BDBF
:1011F0004020092100F0C2F980BD80B50020072100
:1012000000F05EF94142484180BD80B500200321D5
:1012100000F056F9411E4842484180BD80B500208B
:10122000052100F043F980BD80B50020052100F0C4
:10123000A5F980BD80B50020042100F037F980BDFC
:1012400080B50020042100F099F980BD80B5C0462A
:10125000C04680BDB0B500280BD41F230340012435
:101260009C401A4B1C60032304469C43184BE31814
:1012700006E00F230340083B0324A343124C1B1931
:101280008407E40E8907090EA140FF25A5401C68CC
:10129000AC430C431C60012A08D1002812D41F2142
:1012A0000840012181400C480160B0BD002809D4EC
:1012B0001F2108400121814006480160BFF34F8F84
:1012C000BFF36F8FB0BDC0461CED00E080E200E0D0
:1012D00000E400E080E100E000E100E070B51F4ABA
:1012E00081214C00135B83214D00515D002904D105
:1012F00001210E02965BB3420DD0002151555D1CB9
:101300003F262E4016534124A400155B6D1E155335
:101310009B00D2580260084670BDC04670B583215C
:1013200049000E4A535C012B01D1012070BD0123FD
:101330001C02155BAE00905141208000165A761CAD
:101340001652681C3F250540155381204000145A51
:101350000020A54200D1535470BDC046F00D0020BE
:1013600080B5C046C046C046C04680BD09490A4A4D
:10137000CA600A4ACA600A680C239A4383071B0F93
:10138000D2180A6009680907890F401A411E88416E
:101390007047C046200002405A5A0000A5A5000030
:1013A000B0B588B01C20012100F01AFC0020059087
:1013B00004900290402409252046294600F076F842
:1013C00001AA2046294600F083F808B0B0BD10B548
:1013D00088B01C200124214600F002FC0794002064
:1013E00006900590049003940294072101AA00F04E
:1013F0006FF808B010BDB0B588B01C20012100F016
:10140000EFFB002005900490029040240625204622
:10141000294600F04BF801AA2046294600F058F86A
:101420002046294600F04CF84142484108B0B0BD82
:10143000F0B58FB01C200124214600F0D1FB00251F
:1014400009950427144A28463946904708AE134B9D
:1014500028463946324698470527284639460E4AD7
:1014600090472846394632460C4B9847062728466F
:101470003946094A9047284639463246074EB04712
:10148000079406950595049503940294032101AAF7
:101490002846B0470FB0F0BDAD140000D1140000D5
:1014A0000268CA40012010407047000080B5034A1E
:1014B0008018012200F014FA002080BD140D0240B3
:1014C00080B5024A8018FFF7EBFF80BD040D024093
:1014D000FEB515460E4601901C49471838460C309B
:1014E0000024314622460294194B9847B0000199D6
:1014F00008181C494450384608302A783146144CA4
:10150000A0472A7938463146A04738461C302A7A07
:101510003146A047384620302A7B3146A04738461E
:1015200024302A7C3146A0472C372A7D3846314664
:10153000A047A8690121C903064A13688B43C00369
:1015400080B2181810600298FEBDC046000D02401F
:10155000E1180000080F024089004018014942507C
:1015600000207047000C024080B5034A8018012219
:1015700000F0B6F9002080BD0C0D024080B5034A92
:101580008018012200F0ACF9002080BD100D02404F
:1015900080B5034BC01800F0A3F9002080BDC04601
:1015A000080D024081B00020009000980028FCD077
:1015B00001B0704780B5C046C04680BD80B5C0460A
:1015C000C04680BD80B5C046C04680BD80B5C0461F
:1015D000C04680BD80B5C046C04680BD80B5C0460F
:1015E000C04680BD80B5C046C04680BD80B5C046FF
:1015F000C04680BD80B5C046C04680BD80B5C046EF
:10160000C04680BD80B5C046C04680BD80B5C046DE
:10161000C04680BD80B5C046C04680BDF0B587B02D
:10162000804BD9686F4A914207D000290DD1002123
:101630009961D9611962596206E0D969CA0F89189E
:10164000491099616849491C99620024214600F0BB
:1016500057FC0694214600F091FC07467148046946
:10166000600071490F52661C60493046FEF750FD1C
:101670006C4B1961DA68FF20F63082422BD35A4D49
:10168000A81C824205D2D869B84200DB0746DF6158
:1016900021E0986A05920490131A624A9069AB425D
:1016A00001D9401090611346B842059A13DA1D6AB9
:1016B000002D0ED0501B03901A78002A00D03B2238
:1016C000586A0290039890420BD20298B84247DAC7
:1016D000059A1A625F62069F501CD86038B207B044
:1016E000F0BD0195059A1A625F621A79002A3F4D92
:1016F00000D115460398401C002785420397059AA0
:1017000037D9069781420395034600D30025C91AAD
:101710006F18019828180019841A34493046154664
:101720001E46FEF7F5FC31494143C84301193046D6
:10173000039A931B0093019BD218521B02233A4E2B
:101740009A4210D05C1EA74201D30D4601E0039DD2
:101750004D196D00755B002D06D15B1C491EEFE72E
:10176000069F059AB8E7009C201803902D4B069F12
:10177000059A0398141AAFD0029E586902280AD31A
:101780000498201A8004000C002100F03DFC254B39
:10179000D880DA6858699C62401C5861596B1546BC
:1017A0004A1C032313401F4A53631E4B4900591818
:1017B0000E872F1B04280DD318463830042100F063
:1017C000FBFD184B81B2C90B401800B24010986164
:1017D000DA6881E72A46B0B2C00B301800B2401078
:1017E000986179E7E9030000E7030000DC050000E9
:1017F00070B50C4E012434700025F5600A480B4981
:10180000FEF708FD3561756135647564B564F5648E
:10181000B560F5623563B4802846214600F0F4FBDC
:10182000204670BDB800002038020020B80B000030
:1018300080B5C046C04680BD80B5C046C04680BDAC
:1018400080B5C046C04680BDF0B585B014460D4693
:101850000646FFF7ADFC002840D1FFF7AFFC0A2099
:10186000FFF7A8FC00200746029401950096A042CD
:101870002BD0345C00260390072E20D8FFF7E0FC25
:1018800060B2002804943C4602D4FFF7C7FC01E094
:10189000FFF7CAFC02273846FFF78CFCFFF7CAFCAB
:1018A000FFF7B3FC05463846FFF784FC681E854108
:1018B00060004719761C049C64000398DCE7019DD6
:1018C0002F54401C029C009ED1E70A242046FFF7BB
:1018D00071FCFFF779FC2046FFF76CFC05B0F0BD0A
:1018E00001238B40012A02D10168194301E00168FC
:1018F00099430160704780B5C046C04680BD000076
:1019000070B50C46C44DC549A960C549A9602E6A89
:10191000042815D8784400794000874402132D3DEF
:101920005800601E214681412868012290434018DA
:1019300028600020002C65D0E9680905FCD561E02D
:1019400004205FE001200007296A014329622F4833
:10195000016C03220A430264601E21468141480053
:10196000296802229143081828600020002C49D0E1
:1019700029694906FCD545E0601E21468141880061
:10198000296804229143081828600020002C39D0CF
:101990006969C904FCD535E001200007296A0143C3
:1019A00029620320800319490A6802430A60601E05
:1019B00021468141C80029680822914308182860FF
:1019C0000020002C1ED0A9694906FCD51AE0012090
:1019D00001042A6A0A432A620B490A6802430A6020
:1019E000142000F045FA601E214681410801296853
:1019F00010229143081828600020002C02D0E96BC7
:101A00004903FCD52E6270BD002400408C0D0240BD
:101A1000FCB569480688458881880191C488078C8F
:101A2000944A11460C3908680006430F042B0FD85E
:101A3000009462487B441B795B009F4402520B1068
:101A4000130013688D480340B34218D1274848E07B
:101A5000002046E09068864A0240BA4215D0012034
:101A6000C0033EE0136B03241C40032C074634D113
:101A7000136882480340B3420AD11C4F2DE013681B
:101A80000340AB420AD11A482BE04B20400228E029
:101A900013680340AB4208D1154F1EE013680340A2
:101AA000019CA34208D113481BE013680340019C2A
:101AB000A34208D10F4F10E0126802400098824202
:101AC00008D00E480DE0136803400098834203D00D
:101AD0000A4F02E0084804E0074F106BC005000FF2
:101AE000784309684905490FC840FCBD00366E01BE
:101AF000408651010024F40000127A0000093D00E4
:101B000080B5FFF785FF44490968C904890FC840BB
:101B100080BDC046F0B528490E884D888C88C9889C
:101B20008268032A40D1534A1768544B1F40B7427A
:101B300002D1C668022E3DD816681E40AE4202D1C0
:101B4000C568022D36D815681D40A54202D1C4686B
:101B5000032C2FD812681A408A4202D1C168062984
:101B600028D8036803214C03424A156BA5439B0701
:101B70005B0CEB1813634368146B1C25AC435B07C9
:101B8000DB0EE3181363C3680F246401156BA543D0
:101B90001B07DB0DEB18136380680840136B8B4346
:101BA000181810630020F0BDC168044A4A43044974
:101BB0008A42D6D90620F0BD000C10000048E8018A
:101BC000006CDC020721C903044A13688B434007F9
:101BD000800B1818106000207047C0463C20004061
:101BE00080B50A4601460248FFF77AFE002080BD14
:101BF0002020004080B50849084A8A60084A8A6067
:101C00000A68E0239A434001C0B21018086000F04F
:101C100009F8002080BDC046002000405A5A00004C
:101C2000A5A5000080B5FFF7F3FEB449086080BDAC
:101C300010B50E48418B0E4A0A400E4CA1680E4B5F
:101C40000B409918A16000880C49014020680C4A9B
:101C5000024050182060FFF7E5FF60690121090785
:101C600062690A436261606110BDC046080C1000E1
:101C7000FF0300000C20004000FCFFFFFF070000F6
:101C800000F8FFFF80B500F019F880BD80B5C046B0
:101C9000C04680BD80B5C046C04680BD80B5C04648
:101CA000C04680BD80B5C046C04680BD80B5C04638
:101CB000C04680BD80B5C046C04680BDB0B50024DA
:101CC00020462146FEF7A2FF01280FD1084D687873
:101CD000002801D0012003E0FEF77AFE0220012453
:101CE00028706C7000200146FEF786FFB0BDC0462C
:101CF0003001002080B5C046C04680BD80B5C046DA
:101D0000C04680BD10B5143000242246FFF7E8FD20
:101D1000204610BD80B5001D0122FFF7E1FD002027
:101D200080BD80B5001D0122FFF7DAFD002080BDD7
:101D3000F8B500292CD00E4605460024446003C99E
:101D4000B268F3680A431A4302436A60306880212C
:101D50000143C0291DD1F068400A80000EA10F5A2E
:101D60003069FEF76DFC00907069B840FEF768FCC2
:101D700001460098FEF7EFFA3F210906FEF755FAF3
:101D8000FEF765FCA86104212846FFF7C3FF00E0C9
:101D900004242046F8BDC0460400000003000000F3
:101DA00070B50E4604460546103503212846FFF758
:101DB00077FB0028F9D02068FF2188438019206034
:101DC00001212846FFF76CFB0028F9D001212046AD
:101DD000FFF798FF002070BDB0B50024054D022C20
:101DE00007D02819417801208007FFF7D9FF641C2C
:101DF000F5E7B0BD0000002080B5C046C04680BDFC
:101E000080B5C046C04680BD80B5C046C04680BDD6
:101E1000098809B2008800B2401A7047002806D02D
:101E2000002904D000220270401C491EF8E77047C8
:101E3000F8B504462F4E304870600027B760052083
:101E40003060B34D002C0DD0641EB7602B48006885
:101E50002946FEF75DF92849081A401CB1688142FD
:101E6000FCD8EFE73068012188433060F8BDC046F8
:101E7000F8B504461F4E204870600027B760052063
:101E800030600B4D002C0DD0641EB7601B480068FD
:101E90002946FEF73DF91849081A401CB1688142ED
:101EA000FCD8EFE73068012188433060F8BDC046B8
:101EB000A0860100F8B504460E4D0F486860002763
:101EC000AF60052028600D4E002C0DD0641EAF6061
:101ED0007D20C1003068FEF71BF90749081A401C35
:101EE000A9688142FCD8EFE728680121884328606F
:101EF000F8BDC04610E000E0FFFFFF008C000020AE
:101F0000F8B5002907D03F49002008644864886478
:101F1000C864C8622DE03B4AD66AB1005118086413
:101F2000F31E0024144D009631462046042C17D091
:101F3000002B01D41A4600E01A1D9200314F4037A1
:101F4000BA58002901D40E4600E00E1DB600BE5955
:101F5000B21A2E5F564330185B1C491EA41CE5E7DD
:101F60000099022901DC4A1C00E000222549CA62CE
:101F7000800B00B2F8BDC0465C24000070B500299B
:101F800005D02048002282600263427127E00822C7
:101F90001C498B5E0022D443002801D5A34203DCF8
:101FA000A0421EDD002B1CD50A4630324C894B79ED
:101FB0005D005453012213401C4654404C714D8E19
:101FC0000C8E002B2E4600D12646002B00D12C462D
:101FD000A31B1C0400D01A46034608814B8110B293
:101FE00070BD0A23CC5EE317E5185D40C317C61821
:101FF0005E40AE420346F0DC2346EEE70148C0886F
:102000007047C046B8000020FEB500290BD03C4800
:10201000002585618560C560C5804B20C1003948B9
:10202000FEF7F8F86AE00146EB3989B209096F2931
:1020300002D33348058961E0314EB169491CB16171
:10204000314A424392B23589521BD317D2185A40B3
:102050000B2A06DB3278521C3270042904D8002186
:1020600003E00021317003E00A21D2B2914245D24F
:1020700071894A00234B985200223270F289571C12
:10208000F781F2881418F4804B208200481C80B23B
:1020900001921146FEF73CF87181602D01D21B4878
:1020A00011E0732D01D21A480DE0992D01D2194883
:1020B00009E0AC2D01D2184805E0BF2D01D3174827
:1020C00001E07D2040010290A1B2029888420ED228
:1020D0007F1EF781B589681C80B20199FEF718F858
:1020E000B18168000749085A241AF480ECE7BAB2B3
:1020F000B0485043FEF70CF8308185B22846FEBD4B
:1021000008010020F80E002060EAFFFF983A000066
:10211000102700007017000088130000B80B0000A3
:10212000F0B587B00B460246284903C902920393D3
:10213000FEF702FA0D46B449C9680191CC1C582734
:10214000782F2CD0E117890F621803218A43A11A36
:102150000690CB001E4EF2581C48C119503903C9D5
:10216000F6187368FEF7E8F9059504900D461949CD
:10217000C859C9194968326A736AFEF7DDF902461F
:102180000B4604982946FEF7C9F902460B46069805
:102190000599FEF71FF90D46641E0837D0E7019B2D
:1021A000DA0002990A4CA150A218106255620399F4
:1021B00051605B1CD917890F5918032291435A1A91
:1021C0009149CA60294607B0F0BDC0469000002082
:1021D000B801002008000020F8B519490E88B100A8
:1021E000184A50500024274625460096E42C1AD061
:1021F0001548015930B28000124A1058FEF76EF8A7
:10220000FEF73EFA02460B4638462946FEF7E2F84C
:1022100007460D46701E01B2002901D4064600E0B3
:102220003836241DE2E70098401C81B2382900D9D5
:1022300000200349088038462946FEF735FAF8BDE4
:1022400050110020541100206424000084B0FEF7D7
:10225000FFFBFEF769FCFEF71BFCFEF7E3FBFEF756
:10226000C1FBFEF7E9FB4D48FEF72DFCFFF798F8A0
:10227000FFF7C1F84A4F3870FFF7A9F8FFF7D8F811
:1022800000260124474A484B30462146FEF7B8FE57
:10229000C820FFF70FFE2046FEF75EFE01942046A1
:1022A000FEF7A0FE3046FEF7D5FC03A8068002A884
:1022B00006803E4D3E4C00962878002841D0287874
:1022C000022804D1002001460246FEF76BFD20786B
:1022D000002823D0012822D1002E24D0FEF764FF4D
:1022E0000146A88802460A4325D02A89961C2E81D9
:1022F000002906D0884204D0A9802E48FDF708FFA7
:10230000E880A978B0B21E282CD300292AD03878CA
:10231000FEF760FF00202881A8700FE000263878C3
:10232000FEF75EFF0BE001263046FEF75BFE2078ED
:102330000128D3D0F3E73878FEF74CFF019E002048
:102340002870207801281DD1032003A902AAFEF7D6
:1023500029FD0028B0D103987870000AB870FFF703
:102360003BFDA9E70029019EE9D1E9881E39814298
:10237000019EE4D83878FEF733FF0020288101263B
:10238000AE70DCE70020B8700098401C00907870B8
:10239000FFF722FD0A20FFF78DFD8DE780BB0000CF
:1023A00000000020000020406666663F30010020EB
:1023B000A801002060EA0000B0B50C4605460222E4
:1023C000034BFDF7CFFE01208443285FB0BDC0461C
:1023D000111E0000B0B50C4C21698A00A218506192
:1023E000481C0521FDF7AAFE216100252846142D71
:1023F00005D061194969FDF718FF2D1DF7E703495D
:10240000FDF7A9FFB0BDC046400100200000A0407C
:102410002021020C01D010211046020A01D01046E2
:102420000839020901D01046091F820801D0104660
:10243000891E420801D0881E7047081A704702E0C2
:1024400008C8121F08C1002AFAD17047704700203F
:1024500001E001C1121F002AFBD170479DF7CA534A
:1024600036AC6308FD58373A862F7F3A12B6483AA1
:102470002ED091A1922095BAC9FA07BB5C8503BB07
:102480000B78D5B915EF1A3BC3EA9E3BC83BA63B78
:102490005A67EC3A792E89BB623821BC97AA35BCC1
:1024A000C85FAEBB9C25CD3BA621943CFC10B73C3D
:1024B0004AA65A3C87C905BCA0D007BDF9A93FBDB3
:1024C00066310EBD21AB1B3CC6CCA23DAA78203E96
:1024D000220F5E3EE44A753E220F5E3EAA78203E01
:1024E000C6CCA23D21AB1B3C66310EBDF9A93FBD58
:1024F000A0D007BD87C905BC4AA65A3CFC10B73C12
:10250000A621943C9C25CD3BC85FAEBB97AA35BCA9
:10251000623821BC792E89BB5A67EC3AC83BA63B8E
:10252000C3EA9E3B15EF1A3B0B78D5B95C8503BB1C
:10253000C9FA07BB922095BA2ED091A112B6483A9B
:10254000862F7F3AFD58373A6825000000000020AA
:10255000B80000003E24000020260000B800002043
:10256000801300004E24000001010203040000005B
:10257000000000000000F03F00000040E2A50FC096
:1025800000000080D0791740000000C094F50EC014
:1025900000000020589FEE3F00000080BB4DEF3F41
:1025A00000000080BB4D0FC0000000A04C7A174017
:1025B00000000080BB4D0FC000000080BB4DEF3F0E
:1025C000000000000000F03F000000008A6C0EC018
:1025D0000000002071B6154000000000F3910BC010
:1025E00000000040A846EA3F3C000000333353405F
:1025F0006666663F00093D00000000601EC4BE3EE6
:10260000000000601EC4DE3E000000C01613E73E5E
:10261000000000601EC4DE3E000000601EC4BE3E1E
:04000005000000C136
:00000001FF
